:0400000090EF7EF00F
:10FCB400C2821200600ED36E000E9B6E12003C0EC8
:10FCC400BA6E7C0EBB6E000EBC6E1200F90ECB6ECB
:10FCD400000ECC6E9E927E0ECA6E1200C2A275EF0A
:10FCE4007EF078EF7EF0010E79EF7EF0000E1200C8
:10FCF400000EC16E000EC06E000EC36E000EC46E08
:10FD0400010EC26E1200D2EC7EF05CEC7EF068EC68
:10FD14007EF061EC7EF07AEC7EF0120000EE01F0F1
:10FD24000C0EEE6AE806FDE1000EF86E000139EFF4
:10FD34007FF00E6E0EC00DF00D460D46C2500D182C
:10FD4400C30B0D18C26EC28012000D500F02F3CF08
:10FD540011F0F4CF12F00D501002F35012260E5091
:10FD64000F02F350122611C00DF012C00EF0120053
:10FD740013C015F014C016F0D89016321532D8906E
:10FD8400163215321550BB6E13C015F0030E15163E
:10FD9400153AF00E1516BA50CF0B1510BA6E1200A4
:10FDA400000E8D6E000E8C6E000E896E000E8A6E33
:10FDB400000E8B6E070E966E92689368FD0E946E1D
:10FDC40095687E681F0E7F6E000E7C6EF18E1200A9
:10FDD400116E11C00FF00F460F46C2500F18C30B1F
:10FDE4000F18C26EC280C282C2B2FBEF7EF0FDEF7A
:10FDF4007EF0F6EF7EF0C450106E0F6AC3500F24ED
:10FE04000D6E000E10200E6E12000F501010D8B49C
:10FE14000EEF7FF010EF7FF034EF7FF0010E116EE4
:10FE240018EF7FF0D8900F361036112A10AE1DEF60
:10FE34007FF01FEF7FF014EF7FF00F500D5C105038
:10FE44000E58D8A028EF7FF02AEF7FF02EEF7FF036
:10FE54000F500D5E10500E5AD89010320F32112EE2
:10FE64001FEF7FF00DC00DF00EC00EF0120085ECF8
:10FE74007EF0000E146E000E136EBAEC7EF0000ECF
:10FE84009BEC7EF05AEC7EF070EC7EF00009D8B466
:10FE94004EEF7FF050EF7FF046EF7FF0000EEAEC7C
:10FEA4007EF00DC003F00EC004F003C014F004C0D3
:10FEB40015F0ABEC7FF00BC00DF00CC00EF0000E93
:10FEC400106E640E0F6EA7EC7EF00DC013F00EC022
:10FED40014F0BAEC7EF046EF7FF000EF00F0000E75
:10FEE400126E000E116E0F501010D8B47CEF7FF01C
:10FEF4007EEF7FF0A6EF7FF0010E136E86EF7FF0AA
:10FF0400D8900F361036132A10AE8BEF7FF08DEF9A
:10FF14007FF082EF7FF0D890113612360F500D5CCF
:10FF240010500E58D8A099EF7FF09BEF7FF0A0EF10
:10FF34007FF00F500D5E10500E5A1180D890103281
:10FF44000F32132E8DEF7FF011C00DF012C00EF0A2
:10FF5400120014C00DF015C00EF0000E106E300E1D
:10FF64000F6EA7EC7EF00DC005F00EC006F005C0C4
:10FF74000DF006C00EF0270E106E100E0F6E71EC11
:10FF84007FF00DC00BF00EC00CF005C00DF006C0E4
:10FF94000EF0030E106EE80E0F6E71EC7FF00DC0C4
:10FFA40009F00EC00AF009C00DF00AC00EF0000EF0
:10FFB400106E0A0E0F6E07EC7FF00DC009F00EC034
:10FFC4000AF005C00DF006C00EF0000E106E640EAF
:10FFD4000F6E71EC7FF00DC007F00EC008F007C083
:10FFE4000DF008C00EF0000E106E0A0E0F6E07EC36
:0CFFF4007FF00DC007F00EC008F01200F6
:020000040020DA
:08000000FFFFFFFFFFFFFFFF00
:020000040030CA
:0E000000FF081F1EFF8B85FF0FC00FE00F4093
:00000001FF
