:040000000CEF0DF004
:10100000000D0A20566F6C74616765203D202564D1
:101010002E256425642056200D0A00001FBE13EF04
:1010200008F016EF08F0010E17EF08F0000E286E1A
:101030002850D8B41EEF08F020EF08F024EF08F095
:101040001E6C1F1ED8B01F2A000195BF2CEF08F0A0
:101050002AEF08F032EF08F0000E236E010E226E28
:1010600036EF08F094C022F095C023F092C024F02F
:1010700093C025F02850D8B440EF08F042EF08F0B4
:1010800059EF08F02406D8A025062850D8A44BEF25
:1010900008F04DEF08F053EF08F0000E216E2B0E14
:1010A000206E57EF08F0000E216E2D0E206E20C02E
:1010B00028F0000E276E1F0E266E000EB96F91EFFE
:1010C00008F02606D8A027069A0E2624D96E000E10
:1010D0002720DA6E1EC001F01FC002F0000E046E61
:1010E0000A0E036E8DEC0AF001C007F002C008F092
:1010F00053EC0CF00750300FDF6E2206D8A0230609
:101100002406D8A025061EC001F01FC002F0000E64
:10111000046E0A0E036ED3EC09F001C01EF002C08B
:101120001FF027BE9CEF08F0275008E12604D8A046
:101130009CEF08F09EEF08F0B4EF08F01E501F106F
:10114000D8A4A5EF08F0A7EF08F061EF08F023BEE0
:10115000B4EF08F0235006E12204D8B0B2EF08F053
:10116000B4EF08F061EF08F02850D8B4BAEF08F0F7
:10117000BCEF08F0C7EF08F02606D8A027069A0EA5
:101180002624D96E000E2720DA6E28C0DFFF1CC08F
:1011900011F01DC012F09A0E2624136E000E2720A7
:1011A000146E24C015F025C016F03AEC0BF01200B6
:1011B0002BC0D9FF2CC0DAFFDECFF6FFDDCFF7FF63
:1011C000F86A0800F550250AD8A4E9EF08F0EBEF1B
:1011D00008F058EF09F02BC0D9FF2CC0DAFFDE2A47
:1011E000000EDD22000E0001936F000E926F92C080
:1011F0005DF0946995692BC0D9FF2CC0DAFFDECF72
:1012000035F0DDCF36F035C0F6FF36C0F7FFF86AAF
:101210000800F550640AD8B410EF09F012EF09F095
:1012200021EF09F035C0F6FF36C0F7FFF86A080075
:10123000F550690AD8A41FEF09F021EF09F04FEF2C
:1012400009F02DC0D9FF2EC0DAFFDFCF2FF0020E3C
:10125000DE26DFCF30F0000EDD222FC0D9FF30C0F8
:10126000DAFFDECF31F0DDCF32F0010E35242F6E04
:10127000000E3620306E2BC0D9FF2CC0DAFF2FC0F5
:10128000DEFF30C0DDFF29C01CF02AC01DF031C0D8
:101290001EF032C01FF00EEC08F06DEF09F02BC00D
:1012A000D9FF2CC0DAFFDE2A000EDD226DEF09F037
:1012B0002BC0D9FF2CC0DAFFDECFF6FFDDCFF7FF62
:1012C000F86A0800F550016E026A29C003F02AC0CE
:1012D00004F06EEC09F04FEF09F012000350041017
:1012E000D8B475EF09F077EF09F080EF09F00350FB
:1012F0000410D8A47EEF09F080EF09F085EF09F023
:10130000015066EC0DF0D2EF09F020EE0AF0035028
:10131000D9260450DA22DE50DE10D8B492EF09F05C
:1013200094EF09F0AFEF09F020EE0AF00350D92650
:101330000450DA2210EE03F00350E1260450E222BA
:10134000DE50E65CE650800A096EDE50800A0958DD
:10135000D8B0ADEF09F0AFEF09F0D2EF09F020EE11
:1013600003F00350D9260450DA22DECF05F0DDCF9A
:1013700006F003C0D9FF04C0DAFFDECF07F0DDCFEF
:1013800008F005500724D96E06500820DA6E01C017
:10139000DFFF20EE03F00350D9260450DA22DE2AC4
:1013A000000EDD221200000E066E04BEDCEF09F016
:1013B000DAEF09F0E2EF09F0036C041ED8B0042A5A
:1013C000010E066E02BEE9EF09F0E7EF09F0EFEF5C
:1013D00009F0016C021ED8B0022A010E061A000E96
:1013E000086E000E076E03500410D8B4FAEF09F02F
:1013F000FCEF09F024EF0AF0010E056E04EF0AF08D
:10140000D89003360436052A04AE09EF0AF00BEF34
:101410000AF000EF0AF0D890073608360350015C56
:1014200004500258D8A017EF0AF019EF0AF01EEF87
:101430000AF00350015E0450025A0780D89004322B
:101440000332052E0BEF0AF00650D8B42AEF0AF04B
:101450002CEF0AF030EF0AF0076C081ED8B0082A0B
:1014600007C001F008C002F0120047EC0DF0000EBA
:101470001BEC0DF064EC0DF0000EAFEC0CF001C0B5
:10148000C0F002C0C1F0E5EC0CF00009D8B44BEF9D
:101490000AF04DEF0AF03CEF0AF03DEC0DF00009C8
:1014A000D8B455EF0AF057EF0AF04DEF0AF0C0C07C
:1014B00008F0C1C009F0E5EC0AF0600E3F6E000EC6
:1014C000406E010E416E100E426E96C043F097C002
:1014D00044F05BC045F05CC046F059C047F05AC0CC
:1014E00048F00BEC0CF0600E026E000E036E92ECF6
:1014F0000CF00001975109E1020E965DD8A083EF30
:101500000AF085EF0AF088EF0AF08C863CEF0AF0CB
:101510008C963CEF0AF000EF00F0000E066E02BE63
:1015200096EF0AF094EF0AF09CEF0AF0016C021EAD
:10153000D8B0022A010E066E04BEA3EF0AF0A1EF96
:101540000AF0A7EF0AF0036C041ED8B0042A035077
:101550000410D8B4AEEF0AF0B0EF0AF0D4EF0AF0FE
:10156000010E056EB8EF0AF0D89003360436052A4E
:1015700004AEBDEF0AF0BFEF0AF0B4EF0AF003507B
:10158000015C04500258D8A0C8EF0AF0CAEF0AF074
:10159000CEEF0AF00350015E0450025AD890043294
:1015A0000332052EBFEF0AF00650D8B4DAEF0AF086
:1015B000DCEF0AF0E0EF0AF0016C021ED8B0022A5C
:1015C00001C001F002C002F0120008C001F009C021
:1015D00002F0000E046E300E036EF9EC0CF001C048
:1015E00057F002C058F057C001F058C002F0270E63
:1015F000046E100E036E77EC0BF001C096F002C083
:1016000097F057C001F058C002F0030E046EE80EC8
:10161000036E77EC0BF001C05BF002C05CF05BC0C6
:1016200001F05CC002F0000E046E0A0E036EB1EC15
:101630000BF001C05BF002C05CF057C001F058C075
:1016400002F0000E046E640E036E77EC0BF001C026
:1016500059F002C05AF059C001F05AC002F0000E11
:10166000046E0A0E036EB1EC0BF001C059F002C01B
:101670005AF0120016BE3FEF0BF041EF0BF047EFB0
:101680000BF015C01AF016C01BF04BEF0BF0000E5C
:101690001B6E000E1A6E000E196E000E186E5DEFB6
:1016A0000BF0000E026E200E016E11C003F012C08E
:1016B00004F06EEC09F0184A192A1A50185C1950F7
:1016C000800A176E1B50800A1758D8A06AEF0BF0DB
:1016D0006CEF0BF051EF0BF013C00AF014C00BF0DD
:1016E00011C00CF012C00DF031EC0CF01200000E25
:1016F000066E000E056E03500410D8B482EF0BF096
:1017000084EF0BF0ACEF0BF0010E076E8CEF0BF0DB
:10171000D89003360436072A04AE91EF0BF093EF0E
:101720000BF088EF0BF0D890053606360350015CBD
:1017300004500258D8A09FEF0BF0A1EF0BF0A6EFDA
:101740000BF00350015E0450025A0580D890043219
:101750000332072E93EF0BF005C001F006C002F034
:10176000120003500410D8B4B8EF0BF0BAEF0BF02E
:10177000DEEF0BF0010E056EC2EF0BF0D8900336D2
:101780000436052A04AEC7EF0BF0C9EF0BF0BEEF2D
:101790000BF00350015C04500258D8A0D2EF0BF0BC
:1017A000D4EF0BF0D8EF0BF00350015E0450025A57
:1017B000D89004320332052EC9EF0BF001C001F0BE
:1017C00002C002F0120039C03DF03AC03EF0F7EF1F
:1017D0000BF037C029F038C02AF03D0E2B6E000EFA
:1017E0002C6E3BC02DF03CC02EF0D8EC08F03DC074
:1017F000F6FF3EC0F7FFF86A0800F5500009D8A4CC
:1018000004EF0CF006EF0CF0E9EF0BF0000E386E71
:10181000000E376E1200430E496E000E4A6E3FC036
:101820004BF040C04CF0000E4F6E000E4E6E000E9E
:10183000566E000E556E4B0E376E000E386E41C060
:1018400039F042C03AF0490E3B6E000E3C6EE3ECBC
:101850000BF04E503F24D96E4F504020DA6EDF6AB5
:101860001200000E106E000E0F6E42EF0CF00EC054
:1018700001F0026A0CC003F00DC004F06EEC09F038
:101880000F4A102A0F500A24D96E10500B20DA6E1E
:10189000DF500E6E0E50D8A450EF0CF052EF0CF04B
:1018A00037EF0CF0120008BE60EF0CF0085006E1B4
:1018B0000704D8B05EEF0CF060EF0CF06EEF0CF0A8
:1018C00007C009F008C00AF0091E0A1E094A0A2AC0
:1018D00009C007F00AC008F072EF0CF007C007F06B
:1018E00008C008F01200080EB86E900EAB6E240E01
:1018F000AC6E190EAF6E000EB06E000E016E000ED3
:10190000026E5AEC0DF0000E016E000E026E55ECE8
:101910000DF0000E016E000E026E5FEC0DF0000E79
:101920005E6E1200000E046EA0EF0CF00450022454
:10193000D96E000E0320DA6EDF5032EC0DF0042A6F
:1019400004500224D96E000E0320DA6EDF50D8A4B2
:10195000ACEF0CF0AEEF0CF096EF0CF01200056E51
:1019600005C003F003460346C2500318C30B031817
:10197000C26EC280C282C2B2C0EF0CF0C2EF0CF0E5
:10198000BBEF0CF0C450046E036AC3500324016E15
:10199000000E0420026E1200000E8D6E000E8C6E82
:1019A000000E896E000E8A6E000E8B6E070E966E0C
:1019B00092689368BF0E946EF70E956E7E681F0E48
:1019C0007F6E000E7C6EF18E1200000E016E9EA8DE
:1019D000ECEF0CF0EEEF0CF0F7EF0CF0ACAAF3EF3D
:1019E0000CF0F5EF0CF0F7EF0CF0010E016E01506A
:1019F000120001500302F3CF05F0F4CF06F00150BE
:101A00000402F350062602500302F350062605C0D6
:101A100001F006C002F0120000EE92F0280EEE6A0D
:101A2000E806FDE100EE57F0080EEE6AE806FDE17B
:101A3000000135EF0AF0026E02C001F001460146D6
:101A4000C2500118C30B0118C26EC2801200000EF2
:101A5000C16E000EC06E000EC36E000EC46E010E8D
:101A6000C26E1200016E9EA838EF0DF03AEF0DF035
:101A700033EF0DF001C0ADFF1200C2A242EF0DF036
:101A800045EF0DF0010E46EF0DF0000E1200CCEC0C
:101A90000CF050EC0DF027EC0DF073EC0CF0120094
:101AA000300ED36E000E9B6E120001C0BCF002C05F
:101AB000BDF0120001C0BEF002C0BFF0120001C0B4
:0E1AC000BAF002C0BBF01200C2821200120087
:020000040020DA
:08000000FFFFFFFFFFFFFFFF00
:020000040030CA
:0E000000FF081F1EFF8B85FF0FC00FE00F4093
:00000001FF
