:040000001FEF00F0FE
:100008000C82FACF02F0FBCF03F0F2AA0EEF00F059
:1000180010EF00F019EF00F0F2A415EF00F017EF61
:1000280000F019EF00F0A1EC00F003C0FBFF02C0E4
:10003800FAFF0C9211008FEF00F0D59CE10ED76EFD
:100048007B0ED66ED650D7CF06F0076A06C007F0EB
:10005800066A06100A6E07500B6EF294F28A6E0E4C
:10006800046E010E056EA9EC00F0970ED56E120015
:10007800000E8D6E000E8C6E000E896E000E8A6E5C
:10008800000E8B6E070E966E92689368BF0E946E84
:1000980095687E681F0E7F6E000E7C6EF18E1200D2
:1000A80008500910D8B45BEF00F05DEF00F06AEF7C
:1000B80000F002D86AEF00F00500FA6E0850FD6EF5
:1000C8000950FE6EF850FF6EFA50120012008BBCF9
:1000D80070EF00F073EF00F0010E74EF00F0000E07
:1000E800FF0A016E013A014601468B500118BF0B09
:1000F80001188B6E120098EC00F0D60E046E000EFC
:10010800056EA9EC00F0B3EC00F0F28EF28C8BEFE8
:1001180000F01FEF00F00B6A0A6A0C900C92000EB8
:10012800F86E00017FEF00F0B5EC00F03CEC00F059
:10013800AEEC00F021EC00F01200F2940B50D76EF8
:100148000AC0D6FF54EC00F0120004C008F005C045
:1001580009F01200600ED36E000E9B6E1200D58E51
:080168001200D09E12001200EB
:020000040020DA
:08000000FFFFFFFFFFFFFFFF00
:020000040030CA
:0E000000FF081F1EFF8B85FF0FC00FE00F4093
:00000001FF
